:020000040800F2
:1000000000500020CD430008614100086341000812
:1000100065410008674100086941000800000000D0
:100020000000000000000000000000006B4100081C
:100030006D410008000000006F4100087141000898
:10004000154400081544000815440008154400082C
:10005000154400081544000815440008154400081C
:10006000154400081544000815440008154400080C
:1000700015440008154400081544000815440008FC
:1000800015440008154400081544000815440008EC
:1000900015440008154400081544000815440008DC
:1000A00015440008154400081544000815440008CC
:1000B000154400081544000815440008754100085F
:1000C0008141000815440008154400081544000843
:1000D000154400081544000815440008154400089C
:1000E0008D41000815440008154400080000000078
:1000F0000000000000000000000000000000000000
:0C01000000000000000000005FF808F1A3
:1001100010B5054C237833B9044B13B10448AFF341
:1001200000800123237010BDDC01002000000000CE
:10013000E05E000808B5034B1BB103490348AFF369
:10014000008008BD00000000E0010020E05E000823
:10015000034613F8012B002AFBD1181A0138704707
:1001600081F0004102E000BF83F0004330B54FEA68
:1001700041044FEA430594EA050F08BF90EA020FD5
:100180001FBF54EA000C55EA020C7FEA645C7FEA68
:10019000655C00F0E2804FEA5454D4EB5555B8BF8B
:1001A0006D420CDD2C4480EA020281EA030382EAFC
:1001B000000083EA010180EA020281EA0303362D8E
:1001C00088BF30BD11F0004F4FEA01314FF4801C61
:1001D0004CEA113102D0404261EB410113F0004F73
:1001E0004FEA03334CEA133302D0524263EB43032A
:1001F00094EA050F00F0A780A4F10104D5F1200EC8
:100200000DDB02FA0EFC22FA05F2801841F1000122
:1002100003FA0EF2801843FA05F359410EE0A5F1F6
:1002200020050EF1200E012A03FA0EFC28BF4CF027
:10023000020C43FA05F3C01851EBE37101F00045DD
:1002400007D54FF0000EDCF1000C7EEB00006EEBEA
:100250000101B1F5801F1BD3B1F5001F0CD3490874
:100260005FEA30004FEA3C0C04F101044FEA4452CB
:1002700012F5800F80F09A80BCF1004F08BF5FEA52
:10028000500C50F1000041EB045141EA050130BD32
:100290005FEA4C0C404141EB010111F4801FA4F1D5
:1002A0000104E9D191F0000F04BF01460020B1FA2A
:1002B00081F308BF2033A3F10B03B3F120020CDA62
:1002C0000C3208DD02F1140CC2F10C0201FA0CF040
:1002D00021FA02F10CE002F11402D8BFC2F1200CA5
:1002E00001FA02F120FA0CFCDCBF41EA0C0190405B
:1002F000E41AA2BF01EB0451294330BD6FEA0404A4
:100300001F3C1CDA0C340EDC04F11404C4F120028E
:1003100020FA04F001FA02F340EA030021FA04F3A0
:1003200045EA030130BDC4F10C04C4F1200220FAF7
:1003300002F001FA04F340EA0300294630BD21FA35
:1003400004F0294630BD94F0000F83F4801306BFFB
:1003500081F480110134013D4EE77FEA645C18BFEF
:100360007FEA655C29D094EA050F08BF90EA020F86
:1003700005D054EA000C04BF1946104630BD91EA7E
:10038000030F1EBF0021002030BD5FEA545C05D181
:100390004000494128BF41F0004130BD14F58004C0
:1003A0003CBF01F5801130BD01F0004545F0FE4134
:1003B00041F470014FF0000030BD7FEA645C1ABF69
:1003C000194610467FEA655C1CBF0B46024650EAA0
:1003D000013406BF52EA033591EA030F41F40021CC
:1003E00030BD00BF90F0000F04BF0021704730B552
:1003F0004FF4806404F132044FF000054FF0000127
:1004000050E700BF90F0000F04BF0021704730B5E7
:100410004FF4806404F1320410F0004548BF4042BC
:100420004FF000013EE700BF42004FEAE2014FEA11
:1004300031014FEA02701FBF12F07F4393F07F4FEC
:1004400081F06051704792F0000F14BF93F07F4F1E
:10045000704730B54FF4607401F0004521F0004161
:1004600020E700BF50EA010208BF704730B54FF0E7
:1004700000050AE050EA010208BF704730B511F0EC
:10048000004502D5404261EB41014FF4806404F124
:1004900032045FEA915C3FF4DCAE4FF003025FEAA6
:1004A000DC0C18BF03325FEADC0C18BF033202EB2E
:1004B000DC02C2F1200300FA03FC20FA02F001FA88
:1004C00003FE40EA0E0021FA02F11444C1E600BF27
:1004D00070B54FF0FF0C4CF4E06C1CEA11541DBFDA
:1004E0001CEA135594EA0C0F95EA0C0F00F0DEF8A5
:1004F0002C4481EA030621EA4C5123EA4C5350EA8A
:10050000013518BF52EA033541F4801143F48013DA
:1005100038D0A0FB02CE4FF00005E1FB02E506F06B
:100520000042E0FB03E54FF00006E1FB03569CF0C0
:10053000000F18BF4EF0010EA4F1FF04B6F5007FC6
:1005400064F5407404D25FEA4E0E6D4146EB060638
:1005500042EAC62141EA55514FEAC52040EA5E50C1
:100560004FEACE2EB4F1FD0C88BFBCF5E06F1ED86B
:10057000BEF1004F08BF5FEA500E50F1000041EBA2
:10058000045170BD06F0004646EA010140EA02004F
:1005900081EA0301B4EB5C04C2BFD4EB0C0541EA71
:1005A000045170BD41F480114FF0000E013C00F386
:1005B000AB8014F1360FDEBF002001F0004170BDAA
:1005C000C4F10004203C35DA0C341BDC04F11404C3
:1005D000C4F1200500FA05F320FA04F001FA05F24F
:1005E00040EA020001F0004221F0004110EBD3701C
:1005F00021FA04F642EB06015EEA430E08BF20EA48
:10060000D37070BDC4F10C04C4F1200500FA04F3EA
:1006100020FA05F001FA04F240EA020001F000417C
:1006200010EBD37041F100015EEA430E08BF20EAEF
:10063000D37070BDC4F1200500FA05F24EEA020E37
:1006400020FA04F301FA05F243EA020321FA04F066
:1006500001F0004121FA04F220EA020000EBD3701D
:100660005EEA430E08BF20EAD37070BD94F0000F1D
:100670000FD101F00046400041EB010111F4801F51
:1006800008BF013CF7D041EA060195F0000F18BF02
:10069000704703F00046520043EB030313F4801F3E
:1006A00008BF013DF7D043EA0603704794EA0C0FF8
:1006B0000CEA135518BF95EA0C0F0CD050EA41060E
:1006C00018BF52EA4306D1D181EA030101F000418B
:1006D0004FF0000070BD50EA410606BF10461946B3
:1006E00052EA430619D094EA0C0F02D150EA0136BF
:1006F00013D195EA0C0F05D152EA03361CBF104600
:1007000019460AD181EA030101F0004141F0FE419E
:1007100041F470014FF0000070BD41F0FE4141F422
:10072000780170BD70B54FF0FF0C4CF4E06C1CEA22
:1007300011541DBF1CEA135594EA0C0F95EA0C0FD7
:1007400000F0A7F8A4EB050481EA030E52EA033592
:100750004FEA013100F088804FEA03334FF08055B3
:1007600045EA131343EA12634FEA022245EA1115E0
:1007700045EA10654FEA00260EF000419D4208BF91
:10078000964244F1FD0404F5407402D25B084FEA3E
:100790003202B61A65EB03055B084FEA32024FF4EA
:1007A00080104FF4002CB6EB020E75EB030E22BF47
:1007B000B61A754640EA0C005B084FEA3202B6EB07
:1007C000020E75EB030E22BFB61A754640EA5C00B6
:1007D0005B084FEA3202B6EB020E75EB030E22BF46
:1007E000B61A754640EA9C005B084FEA3202B6EB47
:1007F000020E75EB030E22BFB61A754640EADC0006
:1008000055EA060E18D04FEA051545EA16754FEA67
:1008100006164FEAC30343EA52734FEAC2025FEA85
:100820001C1CC0D111F4801F0BD141EA00014FF014
:1008300000004FF0004CB6E711F4801F04BF0143E5
:100840000020B4F1FD0C88BFBCF5E06F3FF6AFAE01
:10085000B5EB030C04BFB6EB020C5FEA500C50F191
:10086000000041EB045170BD0EF0004E4EEA113114
:1008700014EB5C04C2BFD4EB0C0541EA045170BD1B
:1008800041F480114FF0000E013C90E645EA060E5F
:100890008DE60CEA135594EA0C0F08BF95EA0C0F8D
:1008A0003FF43BAF94EA0C0F0AD150EA01347FF4D5
:1008B00034AF95EA0C0F7FF425AF104619462CE7AC
:1008C00095EA0C0F06D152EA03353FF4FDAE10460F
:1008D000194622E750EA410618BF52EA43067FF460
:1008E000C5AE50EA41047FF40DAF52EA43057FF4F0
:1008F000EBAE12E74FF0FF3C06E000BF4FF0010CFB
:1009000002E000BF4FF0010C4DF804CD4FEA410C5E
:100910007FEA6C5C4FEA430C18BF7FEA6C5C1BD02B
:1009200001B050EA410C0CBF52EA430C91EA030FAC
:1009300002BF90EA020F0020704710F1000F91EA09
:10094000030F58BF994208BF90422CBFD8176FEAD7
:10095000E37040F0010070474FEA410C7FEA6C5CA5
:1009600002D150EA013C07D14FEA430C7FEA6C5CAC
:10097000D6D152EA033CD3D05DF8040B704700BFD8
:100980008446104662468C461946634600E000BF26
:1009900001B5FFF7B7FF002848BF10F1000F01BDF8
:1009A0004DF808EDFFF7F4FF0CBF012000205DF8C3
:1009B00008FB00BF4DF808EDFFF7EAFF34BF012048
:1009C00000205DF808FB00BF4DF808EDFFF7E0FFE1
:1009D00094BF012000205DF808FB00BF4DF808ED32
:1009E000FFF7CEFF94BF012000205DF808FB00BF99
:1009F0004DF808EDFFF7C4FF34BF012000205DF87B
:100A000008FB00BF4FEA410C7FEA6C5C02D150EA60
:100A1000013C0AD14FEA430C7FEA6C5C02D152EAF6
:100A2000033C02D14FF0000070474FF001007047C7
:100A30004FEA410212F5001215D211D56FF4787306
:100A4000B3EB625212D94FEAC12343F0004343EAA9
:100A5000505311F0004F23FA02F018BF4042704784
:100A60004FF00000704750EA013005D111F000400E
:100A700008BF6FF0004070474FF00000704700BFA4
:100A800080F0004002E000BF81F0004142001FBF43
:100A90005FEA410392EA030F7FEA226C7FEA236C4C
:100AA0006AD04FEA1262D2EB1363C1BFD218414041
:100AB00048404140B8BF5B42192B88BF704710F0D7
:100AC000004F40F4000020F07F4018BF404211F07A
:100AD000004F41F4000121F07F4118BF494292EAE2
:100AE000030F3FD0A2F1010241FA03FC10EB0C000E
:100AF000C3F1200301FA03F100F0004302D549429B
:100B000060EB4000B0F5000F13D3B0F1807F06D347
:100B100040084FEA310102F10102FE2A51D2B1F13F
:100B2000004F40EBC25008BF20F0010040EA030034
:100B30007047490040EB000010F4000FA2F10102E1
:100B4000EDD1B0FA80FCACF1080CB2EB0C0200FA6B
:100B50000CF0AABF00EBC25052421843BCBFD040B9
:100B60001843704792F0000F81F4000106BF80F433
:100B700000000132013BB5E74FEA41037FEA226CF6
:100B800018BF7FEA236C21D092EA030F04D092F0C1
:100B9000000F08BF0846704790EA010F1CBF0020F5
:100BA000704712F07F4F04D1400028BF40F0004052
:100BB000704712F100723CBF00F50000704700F072
:100BC000004343F0FE4040F4000070477FEA226299
:100BD00016BF08467FEA23630146420206BF5FEA6A
:100BE000412390EA010F40F4800070474FF000036A
:100BF00004E000BF10F0004348BF40425FEA000C31
:100C000008BF704743F0964301464FF000001CE0D8
:100C100050EA010208BF70474FF000030AE000BF2E
:100C200050EA010208BF704711F0004302D540426C
:100C300061EB41015FEA010C02BF844601460020DE
:100C400043F0B64308BFA3F18053A3F50003BCFAF9
:100C50008CF2083AA3EBC25310DB01FA02FC6344A6
:100C600000FA02FCC2F12002BCF1004F20FA02F2AD
:100C700043EB020008BF20F00100704702F12002A0
:100C800001FA02FCC2F1200250EA4C0021FA02F201
:100C900043EB020008BF20EADC7070474FF0FF0C06
:100CA0001CEAD0521EBF1CEAD15392EA0C0F93EA01
:100CB0000C0F6FD01A4480EA010C400218BF5FEAA3
:100CC00041211ED04FF0006343EA501043EA511116
:100CD000A0FB01310CF00040B1F5000F3EBF490010
:100CE00041EAD3715B0040EA010062F17F02FD2A14
:100CF0001DD8B3F1004F40EBC25008BF20F00100F7
:100D0000704790F0000F0CF0004C08BF49024CEA0D
:100D1000502040EA51207F3AC2BFD2F1FF0340EA9F
:100D2000C250704740F400004FF00003013A5DDC10
:100D300012F1190FDCBF00F000407047C2F1000251
:100D4000410021FA02F1C2F1200200FA02FC5FEA3E
:100D5000310040F1000053EA4C0308BF20EADC7088
:100D6000704792F0000F00F0004C02BF400010F4FA
:100D7000000F013AF9D040EA0C0093F0000F01F0A7
:100D8000004C02BF490011F4000F013BF9D041EAC9
:100D90000C018FE70CEAD15392EA0C0F18BF93EACB
:100DA0000C0F0AD030F0004C18BF31F0004CD8D1F5
:100DB00080EA010000F00040704790F0000F17BF7C
:100DC00090F0004F084691F0000F91F0004F14D0C2
:100DD00092EA0C0F01D142020FD193EA0C0F03D11A
:100DE0004B0218BF084608D180EA010000F000401D
:100DF00040F0FE4040F40000704740F0FE4040F4F8
:100E0000400070474FF0FF0C1CEAD0521EBF1CEA96
:100E1000D15392EA0C0F93EA0C0F69D0A2EB0302B4
:100E200080EA010C49024FEA402037D04FF080534E
:100E300043EA111143EA10130CF000408B4238BF13
:100E40005B0042F17D024FF4000C8B4224BF5B1A21
:100E500040EA0C00B3EB510F24BFA3EB510340EA6F
:100E60005C00B3EB910F24BFA3EB910340EA9C001D
:100E7000B3EBD10F24BFA3EBD10340EADC001B018D
:100E800018BF5FEA1C1CE0D1FD2A3FF650AF8B4231
:100E900040EBC25008BF20F0010070470CF0004C3E
:100EA0004CEA50207F32C2BFD2F1FF0340EAC25069
:100EB000704740F400004FF00003013A37E792F02A
:100EC000000F00F0004C02BF400010F4000F013A88
:100ED000F9D040EA0C0093F0000F01F0004C02BF83
:100EE000490011F4000F013BF9D041EA0C0195E7EC
:100EF0000CEAD15392EA0C0F08D142027FF47DAF85
:100F000093EA0C0F7FF470AF084676E793EA0C0F74
:100F100004D14B023FF44CAF08466EE730F0004C72
:100F200018BF31F0004CCAD130F000427FF45CAF02
:100F300031F000437FF43CAF5FE700BF4FF0FF3C70
:100F400006E000BF4FF0010C02E000BF4FF0010CC3
:100F50004DF804CD4FEA40024FEA41037FEA226C8C
:100F600018BF7FEA236C11D001B052EA530C18BFAE
:100F700090EA010F58BFB2EB030088BFC81738BF13
:100F80006FEAE17018BF40F0010070477FEA226C01
:100F900002D15FEA402C05D17FEA236CE4D15FEAFD
:100FA000412CE1D05DF8040B704700BF8446084631
:100FB0006146FFE70FB5FFF7C9FF002848BF10F1F2
:100FC000000F0FBD4DF808EDFFF7F4FF0CBF012037
:100FD00000205DF808FB00BF4DF808EDFFF7EAFFC1
:100FE00034BF012000205DF808FB00BF4DF808ED7C
:100FF000FFF7E0FF94BF012000205DF808FB00BF71
:101000004DF808EDFFF7D2FF94BF012000205DF8F6
:1010100008FB00BF4DF808EDFFF7C8FF34BF012003
:1010200000205DF808FB00BF7BB972B90029BEBF84
:1010300000204FF0004106E008BF00281CBF6FF001
:1010400000414FF0FF3000F0ADB9ADF1080C6DE993
:1010500004CE002909DB002B1ADB00F035F8DDF89F
:1010600004E0DDE9022304B07047404261EB410136
:10107000002B1BDB00F028F8DDF804E0DDE902239B
:1010800004B0404261EB4101524263EB43037047BD
:10109000524263EB430300F017F8DDF804E0DDE9AA
:1010A000022304B0404261EB41017047524263EBBE
:1010B000430300F009F8DDF804E0DDE9022304B0A1
:1010C000524263EB430370472DE9F0478C460E46CE
:1010D0000446089D002B50D18A4217466CD9B2FABB
:1010E00082FEBEF1000F0BD0CEF1200C01FA0EF6FD
:1010F00020FA0CFC02FA0EF74CEA060C00FA0EF489
:101100003A0CBCFBF2F9BBB202FB19CC09FB03FAA7
:101110004FEA144848EA0C46B2450AD9F61909F1D3
:10112000FF3180F02581B24540F22281A9F1020908
:101130003E44A6EB0A06B6FBF2F002FB106600FB8B
:1011400003F3A4B244EA0644A34209D9E41900F126
:10115000FF3280F00B81A34240F2088102383C4408
:101160000021E41A40EA0940002D62D0002324FA4D
:101170000EF42C606B60BDE8F0878B4207D9002D20
:1011800055D0002185E841000846BDE8F087B3FA54
:1011900083F1002940F08F80B34202D3824200F2F3
:1011A000FC80841A66EB03060120B446002D40D073
:1011B00085E81010BDE8F08712B90127B7FBF2F7F8
:1011C000B7FA87FEBEF1000F35D10121F61B4FEAB9
:1011D000174C1FFA87F8B6FBFCF20CFB126608FBF3
:1011E00002F0230C43EA0646B04207D9F61902F191
:1011F000FF3302D2B04200F2D2801A46361AB6FB52
:10120000FCF00CFB106608FB00F8A3B243EA0644AE
:10121000A04507D9E41900F1FF3302D2A04500F23E
:10122000B9801846A4EB080440EA02409CE729462E
:101230002846BDE8F08707FA0EF7CEF1200326FA1C
:1012400003F24FEA174CB2FBFCF11FFA87F80CFBD4
:10125000112206FA0EF620FA03F301FB08F93343D4
:101260001E0C46EA0246B14500FA0EF409D9F619F9
:1012700001F1FF3280F08C80B14540F28980023963
:101280003E44A6EB0906B6FBFCF00CFB106200FB2B
:1012900008F99EB246EA0246B14507D9F61900F1AF
:1012A000FF3371D2B1456FD902383E44A6EB09062F
:1012B00040EA01418FE7C1F1200722FA07F88B408D
:1012C00048EA030326FA07F44FEA134EB4FBFEF98B
:1012D0001FFA83FC0EFB19448E4020FA07F809FB25
:1012E0000CFA48EA06084FEA184646EA0444A245C2
:1012F00002FA01F200FA01F608D9E41809F1FF3008
:1013000044D2A24542D9A9F102091C44A4EB0A0423
:10131000B4FBFEF00EFB104400FB0CFC1FFA88F837
:1013200048EA0444A44507D9E41800F1FF3E29D255
:10133000A44527D902381C4440EA0940A0FB028991
:10134000A4EB0C0CCC45C246CE4615D312D055B1F9
:10135000B6EB0A036CEB0E0606FA07F7CB401F4309
:10136000CE402F606E600021BDE8F0871046F7E6A2
:101370008946DEE64645EAD2B8EB020A69EB030E7F
:101380000138E4E77046D7E718468FE78146BDE7A6
:10139000114676E702383C4444E7084606E7023A3D
:1013A0003E442BE7704700BF38B50E4B0546187812
:1013B0004FF47A73B3FBF0F30B4A1068B0FBF3F011
:1013C00000F09EF8044658B90F2D09D80246294668
:1013D0004FF0FF3000F054F8044B20461D6038BD3C
:1013E000012038BD0000002008000020040000207B
:1013F000074A08B51368032043F01003136000F098
:101400002DF80020FFF7D0FF02F088FE002008BD75
:1014100000200240034A044B11681B780B44136000
:10142000704700BF0802002000000020014B186830
:10143000704700BF0802002038B50446FFF7F6FFEA
:101440000546631C1EBF044B1B78E418FFF7EEFF34
:10145000401B8442FAD838BD00000020074A000231
:10146000D36800F4E06023F4E0631B041B0C43F03A
:10147000BF6343F400330343D360704700ED00E0E3
:10148000174B30B5DC68C4F30224C4F10703251DF3
:10149000042B28BF0423062D4FF0010598BF00241C
:1014A00005FA03F303F1FF3388BF033C1940A14061
:1014B00005FA04F4013C2240002842EA01024FEA06
:1014C0000212AFBF00F16040064B00F00F00D2B235
:1014D000A5BFD2B200F561401A5480F8002330BD98
:1014E00000ED00E014ED00E00123420900F01F00D0
:1014F00003FA00F0014B43F82200704700E100E0DE
:101500000138B0F1807F0AD2F021064B064A5860BC
:1015100082F823100020072298601A60704701208B
:10152000704700BF10E000E000ED00E090F82130CF
:1015300010B5022B03D004238363012010BD036880
:101540001A6822F00E021A601A6822F001021A606C
:10155000184A93421FD0143293421ED01432934241
:101560001DD0143293421DD0143293421DD0143238
:1015700093420CBF4FF480134FF080730E4A002447
:101580005360012380F82130436B80F820407BB109
:101590009847204610BD0123F0E71023EEE74FF4F3
:1015A0008073EBE74FF48053E8E74FF48033E5E7CF
:1015B000184610BD08000240000002402DE9F74F18
:1015C00000221646654BDFF8A4E1DFF8A4C14FF016
:1015D00001080C6808FA06F808EA0404A0457FD15F
:1015E0004D68122D00F0AF8000F28880022D00F0CF
:1015F000A7807CD8002D00F08E80012D00F09E8009
:101600004FF00F09FF2C93BF824606F18045083D3D
:10161000D0F800B092BFB500D0F804B0AD0009FA20
:1016200005F82BEA080802FA05F588BF00F1040A5C
:1016300048EA0505CAF80050D1F804A01AF0805F06
:101640004ED0474D464FAD6926F0030845F00105E1
:10165000BD61BD6908F1804805F00105019508F5F7
:10166000803806F0030B019D4FEA8B0BD8F8085029
:1016700009FA0BF925EA09093A4DA84268D005F59F
:101680008065A84266D005F58065A84264D005F55E
:101690008065A8420CBF0325042505FA0BF545EA31
:1016A0000905C8F808501D681AF4803F14BF254387
:1016B000A5431D605D681AF4003F14BF2543A54390
:1016C0005D609D681AF4801F14BF2543A5439D608B
:1016D000DD681AF4001F14BF2C4325EA0404DC6003
:1016E0000136102E7FF473AF03B0BDE8F08F032DE9
:1016F00022D0112D84D1CA68043281E71A4FBD422D
:1017000009D012D8DFF86C904D4504D009F5803926
:101710004D457FF475AF8A68C2B1012A0CBFC0F88D
:101720001080C0F8148008226AE77545F3D065453B
:10173000F1D0DFF84490EBE7002261E7CA685FE789
:10174000CA6808325CE7CA680C3259E7042257E7D6
:101750000025A2E70125A0E702259EE7000401403D
:10176000001002400008014000002110000031106C
:10177000000032100000111000002210836819428E
:1017800014BF0120002070470AB1016170470904AD
:10179000FBE7C3685940C1607047704708B5044B08
:1017A0005969014202D05861FFF7F7FF08BD00BF39
:1017B000000401400268536913F480630DD06FF494
:1017C000806353610423202203640023036380F8B1
:1017D0003C3080F83D2001207047184670472DE9C5
:1017E000F843044617469946C1F307488EB2256868
:1017F000B8F1010F0CBF6B69AB6936EA030314BF84
:101800000120002008B9BDE8F8836B695A0512D59C
:101810002B68202243F400732B606FF480636B61AC
:101820000423236400230120236384F83C3084F8DC
:101830003D20BDE8F8837B1CD9D04FB9002320227E
:10184000236384F83C3084F83D200320BDE8F8830E
:10185000FFF7ECFDA0EB09008742C8D2EEE72DE9C7
:10186000F843044690461F46089EC1F307498DB2CF
:101870002368B9F1010F0CBF5B699B6935EA03036B
:101880000CBF01230023434502D00020BDE8F883AC
:101890007B1CEDD05FB900232022236384F83C3009
:1018A00084F83D20032084F83E30BDE8F883FFF73C
:1018B000BDFD801B8742DBD2EDE770B504460D46C7
:1018C000164623685B691B0601D5002070BD2046C3
:1018D000FFF770FFA8B96A1CF3D065B9236C20220A
:1018E00043F02003236400230320236384F83C3067
:1018F00084F83D2070BDFFF799FD801B8542E0D242
:10190000ECE7012070BD00002DE9FF41154602689B
:10191000984613680B9E43F4807313600F4600963D
:101920000A9B00224FF001110446FFF798FF68B9A7
:10193000236807F0FE071F610A9A33461A492046BA
:10194000FFF74DFF30B1236C042B18D0032004B0F7
:10195000BDE8F081236803905A690A9903929B6954
:10196000324603932046039BFFF7A7FF48B1236C41
:10197000042BEBD12268136843F400731360012039
:10198000E5E7B8F1010F236802D1EDB21D61DEE792
:101990002A0A1A610A9932462046FFF78EFF00286C
:1019A000E5D12368F1E700BF020001002DE9FF4106
:1019B0009846036816461A680B9D42F480621A60C6
:1019C0001A680F4642F480721A604FF001110095B8
:1019D0000A9B00220446FFF742FF80B92368FFB24A
:1019E00007F0FE021A612D492B460A9A2046FFF79E
:1019F000F6FE40B1236C042B01D1012000E003204E
:101A000004B0BDE8F081236803905A690A990392F3
:101A10009B692A4603932046039BFFF74EFF40B184
:101A2000236C042BEBD12268136843F4007313601A
:101A3000E3E7B8F1010F236824D1F6B21E612A460C
:101A40000A992046FFF739FF02460028E8D12168AD
:101A500020460B6843F480730B6000950A9B4FF09F
:101A60000111FFF7FCFE0028C9D1236847F00107E8
:101A70001F610A9A2B4609492046FFF7B0FE00284D
:101A8000B8D1BDE7320A1A610A992A462046FFF703
:101A900014FF0028C4D12368CFE700BF0200010073
:101AA00070B504460D4616462068436913F040039E
:101AB00001D0002070BD4269D2060BD56FF0100234
:101AC00042612022236484F83C302363012084F89F
:101AD0003D2070BD5DB9236C032043F020032364D7
:101AE000202384F83D30002384F83C3070BDFFF79C
:101AF0009DFC801B8542D7D2EDE770B504460D46AC
:101B0000164623685B695B0701D5002070BD20463F
:101B1000FFF750FEA8B96A1CF3D065B9236C2022E8
:101B200043F02003236400230320236384F83C3024
:101B300084F83D2070BDFFF779FC801B8542E0D220
:101B4000ECE7012070BD000038B5044608B901205B
:101B500038BD90F83D3003F0FF021BB980F83C20FF
:101B600002F0A4F82423226884F83D30136823F09F
:101B70000103136001F064F963682F4A934230D87F
:101B80002E4A9042E3D92E4A2168B0FBF2F24A6015
:101B900001320A62284A0138934232D85B00B0FB16
:101BA000F3F0431CC3F30B03042B38BF0423CB61B6
:101BB000226AE369002013430B60E2682369134340
:101BC0008B60A26963691343CB600B6843F0010328
:101BD0000B602023206484F83D30206384F83E00AD
:101BE00038BD184A9042B2D9154D4FF49672B0FBE9
:101BF000F5F521686A434D604FF47A75B2FBF5F252
:101C0000C6E7A26852B903EB4303B0FBF3F0431CF1
:101C1000C3F30B036BB143F40043C8E719225343EA
:101C2000B0FBF3F0431CC3F30B0313B143F4404385
:101C3000BDE70123BBE700BFA08601007F841E0033
:101C400040420F00FF083D002DE9F34704469A4645
:101C5000884691460C9EFFF7E9FB94F83D30054617
:101C6000202B03D0022002B0BDE8F087009019239A
:101C700001223E492046FFF7F2FD0028F2D194F8F8
:101C80003C30012BEED0012384F83C302368002740
:101C90001A684146D20758BF1A6820465CBF42F016
:101CA00001021A601A6822F400621A60212384F883
:101CB0003D30402384F83E300A9B27646362BDF8C0
:101CC0002C30019563852A4B0096E362638D4A466A
:101CD00023855346FFF718FE00282AD0236C84F88A
:101CE0003C70042B07D10120BDE7FFF7E6FD20B1D2
:101CF000236C042B34D00320B5E7616A27684B1CA2
:101D000063620B78228D3B61638D501E013B9BB259
:101D100063857B6980B25B0720850AD548B18B1C3F
:101D200063624B78023A3B61638D2285013B9BB233
:101D30006385238D2A4631462046002BD5D1FFF7F7
:101D4000DCFE0028D4D12268136843F400731360CA
:101D5000202384F83C0084F83D3084F83E0082E77C
:101D60002268136843F400731360BCE7020010009C
:101D70000000FFFF2DE9F047044686B09A460D4665
:101D80009146109FFFF752FB94F83D300646202BFA
:101D900004D00225284606B0BDE8F087009019233C
:101DA000012281492046FFF75AFD0028F1D194F81D
:101DB0003C30012BEDD0012384F83C3023684FF0F8
:101DC00000081A682946D20758BF1A6820465CBF27
:101DD00042F001021A601A6822F400621A6022239B
:101DE00084F83D30402384F83E300E9BC4F8408098
:101DF0006362BDF83C30019663856C4B0097E362EB
:101E0000638D4A4623855346FFF7D0FD054630B122
:101E1000236C84F83C80042B3DD10125BAE7228D48
:101E2000236892B902905A6902929A690292029AC0
:101E30001A6842F400721A60202384F83D300023AF
:101E400084F83E3084F83C30A4E7012A25D11A6892
:101E500022F480621A6072B6236803905A69039272
:101E60009A690392039A1A6842F400721A6062B681
:101E7000DFF83C81238D002BDED0032B77D8012B9C
:101E800027D1324639462046FFF70AFE00283FD0C8
:101E9000236C202BC1D103257CE7022A1A680ED1BE
:101EA00042F400621A6072B6236804905A69049280
:101EB0009A690492049A1A6822F48062D6E742F47E
:101EC00080621A6005905A6905929B690593059B8B
:101ED000CEE7022B00963B464FF0000241462046DB
:101EE00024D1FFF7BCFC0028D5D172B623681A684C
:101EF00042F400721A60626A1B69511C61621370BD
:101F0000238D013B2385638D013B9BB2638562B6C4
:101F1000636A5A1C6262226812691A70238D013B3F
:101F20002385638D013B9BB26385A3E7FFF797FC95
:101F300002460028AFD121680B6823F480630B6050
:101F400072B6636A2046591C61622168096919707A
:101F5000238D0096013B2385638D4146013B9BB257
:101F600063853B46FFF77BFC0028BFD093E73246F2
:101F700039462046FFF794FD002889D1636A5A1C30
:101F80006262226812691A70238D2268013B2385E0
:101F9000638D013B9BB2638553695B077FF56AAF35
:101FA000636A591C6162B7E7020010000000FFFF7E
:101FB00004000100704770477047704770477047D2
:101FC000704770477047704790F83D3010B5293B17
:101FD000012B0446036839D800220263282280F8C6
:101FE0003D201A6822F400621A605A6812F40062F6
:101FF00054D05A68606B22F400625A6090F8213025
:10200000012B394B31D04363FFF790FA50B122686E
:10201000606B136823F001031360202384F83D30C4
:10202000436B984794F83D30282B0ED1236C5B0707
:102030000BD52E4B2022E36200232046236384F835
:102040003D2084F83E30FFF7BAFF10BD90F83D20E8
:10205000602A05D05A6812055CBF202280F83D2016
:102060000022226384F83E20BBE7A06B4363FFF7A6
:102070005DFA0028D6D022685369580604D5636AF1
:102080001269591C61621A702268A06B136823F0F0
:1020900001031360202384F83D30C1E794F83D101C
:1020A000602914D1202184F83D1022645A69510618
:1020B00004D5626A1B69511C616213702268204654
:1020C000136823F001031360FFF77DFFAAE75A6945
:1020D000520604D5626A1B69511C61621370204666
:1020E000FFF770FF9EE700BF012900080000FFFF17
:1020F0000368F0B59D6959695A6890F83E408DB003
:10210000E4B2102C02D0402C40F0568211F0011F96
:1021100066D0970564D590F83E40402C43D1046DBD
:10212000002C3BD1446C04F0FE041C61944E954C91
:102130002E400C40002E00F0A281934D0D40002D4A
:1021400000F06981550540F16681002C40F0638103
:1021500090F83D20058D90F83E10D2B2C9B2C46A05
:10216000002D40F01781212A40F01681042C00F048
:102170006F81082C00F06C8114F5803F00F06881BD
:102180005A6822F4E0625A601123036380F83E50DB
:10219000202380F83D30FFF70DFF18E1446C44F038
:1021A0000104E4B2C1E70469B4F5804F05D190F8A9
:1021B0003D40212C446CF2D1B5E7046D34B9446C38
:1021C000E41104F0060444F0F004AEE7046D012CC1
:1021D000ACD1446CE41104F0060444F0F104A4E72B
:1021E0006A4C0C401CB1960501D5446CD9E7684C8B
:1021F0000C40002C9AD0940598D590F83E40C66AC1
:10220000D0F830E090F83D70E4B2222F40F0AF807B
:10221000076D47B9402C06D100975C6900949C6912
:102220000094009C82E7046D8CB90769B7F5404FB4
:102230000DD101945C6901949C690194019C1C6816
:1022400044F480741C60046D013404656EE7448DB1
:10225000A4B254B902945C6902949C690294029CF1
:102260001C6844F400741C6019E0448DA4B2012C75
:1022700042D116F5803F1BD11C6824F480641C6099
:102280005C6814F400640CD01C6824F480641C6046
:10229000002403945C6903949C690394039C0024C8
:1022A000D3E704945C6904949C690494049CD7E784
:1022B000042E15D0082E13D0BEF1120F10D0C46A10
:1022C000022C1C6814BF24F4806444F480641C60F5
:1022D000002405945C6905949C690594059CDEE7DF
:1022E0001C6824F480641C60002406945C690694D5
:1022F0009C690694069CB3E7448DA4B2022C23D1BA
:10230000C46A0026022C1C6814D044F400641C60CB
:1023100007965C6907949C690794079C1C6824F4E1
:1023200080641C605C682705B9D55C6844F48054FF
:102330005C60B4E744F480641C6008965C690894AF
:102340009C690894089CEDE71C6844F480641C6058
:102350005C68260542BF5C6844F480545C600024DD
:1023600009945C6909949C690994099C97E7002485
:102370000A945C690A949C690A940A9CD6E600BF98
:1023800004001000040001008000010008000100AA
:1023900002000100212A03D0402918D1222A16D197
:1023A000428D92B222B95A6822F480625A600EE0DD
:1023B00090F83E20402A28D1026D82B9C26C012AD1
:1023C000826C06D1D2B21A61036D023303650DB07F
:1023D000F0BDC2F307221A61036D0133F6E7026D07
:1023E000012A02D1826CD2B2F5E7026D022AEED147
:1023F00090F83D20222A04D11A6842F480721A60B3
:10240000E5E790F83D20212AE1D1426A511C416262
:1024100012781A6199E0002CD9D09405D7D5C16AF9
:1024200090F83D20212AD2D1428D92B2002AECD1DF
:1024300004290DD008290BD011F5803F08D0596828
:1024400021F4E06159601123036380F83E209FE688
:102450005A6822F4E0625A601A6842F400721A6004
:1024600000232022036380F83D2090F83E2080F86E
:102470003E30402A7FF48FAEFFF7A2FDA7E78F4DD5
:102480000D40002D46D0510544D5002C42D190F886
:102490003D20222A9BD1428D92B2032A05D9426A5D
:1024A0001B69511C416213704FE0023A012AC26A53
:1024B0000DD8022A1A681DBF22F480621A601A68B9
:1024C00042F4806218BF42F400621A606BE7022A8D
:1024D0001A6814BF22F4806242F480621A605A685B
:1024E00022F4E0625A60426A1B69511C4162137017
:1024F000438D013B9BB24385202380F83D30002370
:10250000036390F83E2080F83E30402A51D1FFF717
:1025100058FD5CE7002C3FF45AAF97057FF557AFA5
:10252000C26A418D89B20329416A13D1042A04D0B9
:10253000082A02D012F5803F03D11A6822F4806283
:102540001A601B694A1C42620B70438D013B9BB2AF
:1025500043853CE7448DA4B2022CF2D1042A1FD05B
:10256000082A1DD012F5803F1AD0022A1A6814BF1B
:1025700022F4806242F480621A605A6822F4407247
:102580005A601B694A1C42620B70438D013B9BB22F
:102590004385436A5A1C4262026812691A70A7E7AF
:1025A0005A6822F440725A601A6842F400721A6043
:1025B000E7E7FFF700FD0AE7414C0C4074B19605D0
:1025C0000CD599699B6981F004011D06C1F3800156
:1025D00054BF8289028BFFF7F1FCF8E6394C0C40BE
:1025E000002C73D0940571D590F83D205968D2B273
:1025F00021F4E061596000210B9159690B91196830
:1026000041F0010119600B99196821F4806119608A
:10261000596809050CD590F83D10222903D090F88F
:102620003D102A2929D1816B0968496889B2418501
:10263000418D89B2E1B159694F0708D5416A1B69DB
:102640004C1C44620B70438D013B9BB24385016877
:102650004B695E0608D5436A09695C1C44621970BF
:10266000438D013B9BB24385036C43F00403036439
:10267000036C23B1FFF7A8FCA9E6416BD4E7A2F1F4
:10268000280102290AD8104AC2622022036380F876
:102690003D2080F83E30FFF792FC98E6036B222B3A
:1026A00002D0222A7FF493AE00232022036380F815
:1026B0003D2080F83E30FFF780FC88E640000100B6
:1026C00002000100100001000000FFFF394E3A4CEB
:1026D0002E400C40002E36D0384D0D403DB35505F0
:1026E00025D524BB90F83D10428DC9B292B2002A84
:1026F0003FF46DAE426A541C446212781A61428DF6
:10270000013A92B24285428D92B2002A7FF45FAEC6
:1027100029297FF45CAE5A6822F480625A60212332
:102720000363282380F83D30FFF746FC4FE6002C7A
:102730003FF44DAE94057FF54AAE428D92B2002A29
:102740007FF463AE43E61E4D0D4035B3510524D5ED
:102750001CBB90F83D20418DD2B289B200293FF4D4
:1027600036AE416A1B694C1C44620B70438D013BC1
:102770009BB24385438D9BB2002B7FF428AE2A2A5F
:102780007FF425AE0268536823F4806353602223EC
:102790000363282380F83D308DE7002C3FF417AE0B
:1027A00092057FF514AE428D92B2002A7FF477AE87
:1027B0000DE600BF040010000400010080000100CD
:1027C00040000100F8B503684B4A5E6904461642B2
:1027D0005D680CD0E8050AD5226C42F00102226443
:1027E0006FF480725A611A6842F400421A6016F45B
:1027F000813F08D0E90506D5226C42F0020222642E
:102800006FF400725A6116F4823F36D0EA0534D56F
:1028100094F83E70618D94F83D20202F89B2D2B299
:10282000206B58D1002956D102F0F701212903D09D
:10283000282A50D121284ED194F83D20E16AD2B205
:10284000042901D008292CD1282A2AD12B4A204634
:10285000E2625A6822F4E0625A606FF480625A6160
:102860001A6822F480621A6000232022236384F80D
:102870003D2084F83E30FFF7A2FB16F4843F09D0D8
:10288000EB0507D56FF40062236C43F00803236463
:1028900023685A61236C73B32046BDE8F840FFF704
:1028A00093BB212A23D115492046E16222632022CD
:1028B00084F83D20002284F83E205A6822F4E06229
:1028C0005A606FF480625A611A6822F480621A605A
:1028D000FFF772FBD1E7226C42F00402226494F805
:1028E0003E20102A02BF1A6842F400721A606FF488
:1028F00080625A61C1E7F8BD000101000000FFFFDE
:10290000406A08B50368416B1A6822F480621A6055
:10291000002242854A63816B4A6390F83D1060292A
:102920004FF0200180F83D1080F83E2007D102646E
:102930001A6822F001021A60FFF745FB08BD1A6809
:1029400022F001021A60FFF73DFB08BD03682DE984
:10295000F341DB07054610D42B689F075ED42B6834
:10296000190700F195802B685A0700F1BF80EA69CA
:10297000002A40F02D81002014E0904C636803F0A1
:102980000C03042B07D0636803F00C03082B0CD155
:102990006368DE0309D523689C03DDD56B68002BD3
:1029A000DAD1012002B0BDE8F0816B68B3F5803F59
:1029B00010D1236843F480332360FEF737FD0646C9
:1029C00023689803C8D4FEF731FD801B6428F7D92B
:1029D0000320E7E79BB9236823F48033236023684F
:1029E00023F480232360FEF721FD06462368990324
:1029F000B2D5FEF71BFD801B6428F7D9E8E7B3F5D5
:102A0000A02F236803D143F480232360D1E723F46C
:102A100080332360236823F48023CDE7674C636809
:102A200013F00C0F07D0636803F00C03082B10D1D0
:102A30006368DA030DD423689B0702D52B69012B49
:102A4000AFD123686A6923F0F80343EAC203236025
:102A500085E72A695A4B6AB101221A60FEF7E6FC43
:102A6000064623689F07ECD4FEF7E0FC801B022893
:102A7000F7D9ADE71A60FEF7D9FC06462368980738
:102A80007FF56DAFFEF7D2FC801B0228F6D99FE7D9
:102A9000AA694A4C4B4BDAB101221A60FEF7C6FC18
:102AA0000646636A9B070DD54FF4FA52464B1B68E6
:102AB000B3FBF2F3019300BF019B5A1E0192002B5E
:102AC000F9D150E7FEF7B2FC801B0228E9D97FE775
:102AD0001A60FEF7ABFC0646636A9F077FF543AFBB
:102AE000FEF7A4FC801B0228F6D971E7334CE3699A
:102AF000D80024D40127E36943F08053E361E369FC
:102B000003F080530093009B304E3368D90518D5ED
:102B1000EB68012B26D1236A43F001032362FEF701
:102B200085FC41F288368046236A9B073FD5002FFB
:102B30003FF41DAFE36923F08053E36117E70027FB
:102B4000E2E7336843F480733360FEF76FFC80463E
:102B50003368DA05DCD4FEF769FCA0EB08006428D2
:102B6000F6D935E7ABB9236A41F2883823F001037F
:102B70002362236A23F004032362FEF757FC064610
:102B8000236A9807D3D5FEF751FC801B4045F7D93F
:102B90001EE7052B236A03D143F004032362BAE73F
:102BA00023F001032362236A23F00403B6E7FEF750
:102BB0003DFCA0EB0800B042B6D909E70010024086
:102BC00000004242800442420800002000700040A1
:102BD000224C636803F00C03082B3FF4E2AE0023A1
:102BE0001F4E022A33602BD1FEF720FC07462368D4
:102BF00099011FD42B6AB3F5803F05D16268A9689B
:102C000022F400320A436260696A62680B4322F46C
:102C100074121343636001233360FEF707FC05461B
:102C200023689A013FF5A7AEFEF700FC401B02287F
:102C3000F6D9CDE6FEF7FAFBC01B0228D7D9C7E6C6
:102C4000FEF7F4FB054623689B017FF594AEFEF783
:102C5000EDFB401B0228F6D9BAE600BF0010024087
:102C60006000424230B5194B87B002AC03F1100549
:102C7000224618685968083303C2AB421446F7D19C
:102C800001238DF80430022311498DF805304B687B
:102C900003F00C02082A17D1C3F3834206A80244AA
:102CA000DB0312F8102C0CD54B680A48C3F34043E1
:102CB000504306AA134413F8143CB0FBF3F007B0DA
:102CC00030BD05485043FAE70248F8E7F85E0008CF
:102CD0000010024000127A0000093D00544A2DE91C
:102CE000F0411368054603F007038B420E462AD3D2
:102CF00029688C0734D4CA0747D44D4A136803F0B7
:102D000007039E42C0F082802A684A4C12F0040FEA
:102D100040F08780130706D563682A6923F460535F
:102D200043EAC2036360FFF79DFF6368424AC3F34F
:102D30000313D35CD840414B18600020FEF734FBEE
:102D40000020BDE8F081136823F007030B431360F4
:102D5000136803F007039942CAD00120BDE8F0814F
:102D6000344B11F0040F1EBF5A6842F4E0625A60FF
:102D7000080742BF5A6842F460525A605A68A8680D
:102D800022F0F00202435A60B5E76A68294C012A32
:102D900023681CD113F4003FDFD0636841F2883808
:102DA00023F0030313436360FEF740FB6B680746A1
:102DB000012B14D1636803F00C03042B9DD0FEF7A4
:102DC00035FBC01B4045F5D90320BDE8F081022A40
:102DD00002D113F0007FDFE713F0020FDCE7022BD4
:102DE0000FD1636803F00C03082B86D0FEF71EFB9F
:102DF000C01B4045F5D9E7E7FEF718FBC01B40456F
:102E0000E2D8636813F00C0FF6D176E7136823F06D
:102E1000070333431360136803F007039E429CD1FA
:102E200072E76368E96823F4E0630B43636071E76A
:102E30000020024000100240085F00080800002047
:102E4000044B054A5B68C3F30223D35C034A106852
:102E5000D840704700100240185F000808000020AA
:102E6000044B054A5B68C3F3C223D35C034A106872
:102E7000D840704700100240185F0008080000208A
:102E80000223026880F83D30136843F001031360A9
:102E9000012380F83D300020704790F83C3070B539
:102EA000012B4FF002031CD0012280F83D30036853
:102EB00080F83C209A6822F47F4222F077029A60E0
:102EC0000A68402A79D019D8102A00F093800AD8CD
:102ED000002A00F08980012380F83D30002380F82B
:102EE0003C30184670BD202A00F08A80302AF2D18A
:102EF0009A6822F0700242F0370236E0702A36D02B
:102F00001BD8502A42D0602AE5D11C6A4D6824F0B3
:102F10001004CE681C6299691A6A21F4704122F08B
:102F2000A00242EA051241EA063199611A629A68E2
:102F300022F0700242F0670217E0B2F5805F11D014
:102F4000B2F5005FC7D18A684D689C68C9682A439A
:102F500024F47F4442EA012222439A609A6842F4B0
:102F6000804202E09A6822F007029A60B3E78A681A
:102F70004D689C68C9682A4324F47F4442EA0122D0
:102F800022439A609A6842F07702EEE74C68CE6876
:102F9000196A1D6A21F00A0125F001051D629A696E
:102FA000214322F0F00242EA06129A6119629A68FD
:102FB00022F0700242F05702D7E74C68CE68196AD7
:102FC0001D6A21F00A0125F001051D629A6921435D
:102FD00022F0F00242EA06129A6119629A6822F01F
:102FE000700242F04702C0E79A6822F0700242F095
:102FF0000702BAE79A6822F0700242F01702B4E7BB
:103000009A6822F0700242F02702AEE71A4A03687B
:1030100090420AD0B0F1804F07D0A2F5943290428E
:1030200003D002F58062904215D14A6823F0700304
:103030001343114A90420AD0B0F1804F07D0A2F555
:103040009432904203D002F58062904203D1CA6864
:1030500023F4407313434A6923F08003134303604E
:103060008B68C3620B688362034B984204BF0B6991
:103070000363012343617047002C014010B50446EF
:10308000A0B190F83D3003F0FF021BB980F83C205E
:1030900001F02AF90223206884F83D30211DFFF752
:1030A000B5FF0123002084F83D3010BD012010BD84
:1030B00090F83C3010B5012B4FF0020318D080F887
:1030C0003D3003680C685A68496822F070025A6003
:1030D0005A6822435A609A6822F080029A609A687D
:1030E0000A439A60012380F83D30002380F83C3089
:1030F000184610BD2DE9F0470568C2682B690169C3
:1031000023F4405313432B618368EA680B434169FE
:1031100022F4B05222F00C020B431343EB606B69B4
:10312000826923F4407313436B61404B81469D4297
:103130004FF0190446D1FFF793FE04FB00F3D9F8D2
:1031400004604FF06408B600B3FBF6F3B3FBF8F38A
:103150001E01FFF785FE6043D9F804309B00B0FBE9
:10316000F3F7FFF77DFE6043D9F804309B00B0FB16
:10317000F3F3B3FBF8F308FB13731B013233B3FB18
:10318000F8F303F0F007FFF76BFE6043D9F8042073
:103190009200B0FBF2FAFFF763FE6043D9F8043007
:1031A0009B00B0FBF3F3B3FBF8F308FB13A31B0185
:1031B0003233B3FBF8F303F00F033B433344AB600C
:1031C000BDE8F087FFF73CFE04FB00F3D9F804608C
:1031D0004FF06408B600B3FBF6F3B3FBF8F31E013F
:1031E000FFF72EFE6043D9F804309B00B0FBF3F7E5
:1031F000FFF726FE6043D9F804309B00B0FBF3F3E1
:10320000B3FBF8F308FB13731B013233B3FBF8F382
:1032100003F0F007FFF714FE6043D9F80420920092
:10322000B0FBF2FAFFF70CFEB7E700BF0038014031
:1032300010B5044640B390F8393003F0FF021BB9D3
:1032400080F8382001F092F82423226884F839307D
:10325000D368204623F40053D360FFF74BFF236865
:1032600000201A6922F490421A615A6922F02A0257
:103270005A61DA6842F40052DA602023E06384F88D
:10328000393084F83A3010BD012010BD7FB50023DD
:1032900006AA02F8013D0A23029301238DE80C00DF
:1032A00002460548EC210068FEF764FD9DF8170012
:1032B00007B05DF804FB00BF2C0200207FB50A2395
:1032C0000293022302460193084805AB0093EC21C8
:1032D00001230068FEF74EFD9DF814009DF815309F
:1032E00043EA002007B05DF804FB00BF2C02002079
:1032F00008B5FFF7E3FF40BA80B208BD7FB50A23E7
:1033000006AA02F8011D029301238DE80C00024673
:103310000348EC210068FEF797FC07B05DF804FB5A
:103320002C0200207FB50A23029303230246019357
:103330000A4805AB0093EC2101230068FEF71AFD53
:103340009DF815309DF814001B0243EA00439DF8D8
:103350001600184307B05DF804FB00BF2C020020E4
:1033600008B5F320FFF792FF00F0010008BD8900C7
:1033700001F01C0141EA401101F0FC01F520FFF7CA
:10338000BDBF00002DE9F8439DF82040634D032C9C
:1033900028BF032428606248012C047008BF002461
:1033A000052928BF0521052A28BF052215465D4AA3
:1033B000052B15705C4A0F4628BF052390465B49D4
:1033C00013700F70D020FFF761FF6028FAD1B6218B
:1033D000E020FFF793FF1E264FF47A70013E00F0C5
:1033E00057FA16F0FF06F7D1FFF7BAFF0646002896
:1033F00040F088808820FFF77BFF4D4B18808A20A3
:10340000FFF776FF4B4B18808C20FFF771FF4A4B7C
:1034100018808E20FFF76CFF484B18809020FFF734
:1034200067FF474B18809220FFF762FF454B1880DB
:103430009420FFF75DFF444B18809620FFF758FF5C
:10344000424B18809820FFF753FF414B18809A2079
:10345000FFF74EFF3F4B18809C20FFF749FF3E4B84
:1034600018809E20FFF744FF3C4B1880A120FFF7F7
:103470000DFF3B4B1870E120FFF73AFF394B1880E6
:10348000E320FFF703FF384B1870E420FFF7FEFE40
:103490008146E520FFF7FAFE344B00F00F0040EACA
:1034A00009101880E620FFF7F1FE8146E520FFF7BE
:1034B000EDFE2F4BC0F3071040EA09101880E720FB
:1034C000FFF7E4FE2B4B1870F220FFF7DFFE98F8B1
:1034D000003000F0F8011943F220FFF70FFFF2204F
:1034E000FFF7D4FEA90041EA47112143C9B2F420F5
:1034F000FFF704FF032C0FD13146BDE8F843F52058
:10350000FFF7FCBE0A264FF47A70013E00F0C0F9C6
:1035100016F0FF06F7D167E7BDE8F8832C0200201C
:1035200034020020160200200E0200202802002093
:1035300026020020180200200C0200201E0200209B
:1035400010020020360200203C0200201A02002057
:103550002402002014020020220200203A0200204F
:103560001202002020020020380200203202002037
:103570001C0200203002002008B5214B1B78012BD3
:1035800007D0FA20FFF7CEFEB0F5000F18D11D4886
:1035900008BDF420FFF77AFE00F0FC0141F00101C4
:1035A000F420FFF7ABFEF420FFF770FE00F00300FD
:1035B0000128E6D1F420FFF769FE8307FAD1E0E79E
:1035C000114B12491A88C2EB20235200C2EBE010C3
:1035D0000F4A5B43B2F900201B134243B1F90000CC
:1035E00058430C4B801300EBE220186000EB800086
:1035F00080300012FDF7FEFA0749FDF703FC08BD15
:10360000340200200000C6C2260200200C02002066
:1036100018020020400200200000C8422DE9F74FA8
:1036200004468DE80600FFF7A7FF88492060FDF7F4
:10363000C9FC824618B1FF2003B0BDE8F08FF72027
:10364000FFF770FEDFF844B28646DBF80000C117D2
:10365000B0F5FA3041F1FF31A0FB008900FB01F326
:1036600009EB43097A4BB3F9002002FB01F4D317AD
:1036700000FB0344A2FB002323441F03754B1603E6
:1036800047EA1257B3F9002002FB09F4D31708FBED
:103690000343A2FB08451D44220A6F4C42EA05621F
:1036A00092194FEA252326887B410032A2FB06456A
:1036B00043F5004306FB03556A10EB1752EA030477
:1036C00000F0C280654C4FEA2E1EB4F90060CEF5C2
:1036D000801E06FB09F4F71708FB0747A6FB084501
:1036E0005F4E3D44B6F9008008FB01F14FEAE879EE
:1036F00000FB0911A8FB008989445A494FEA494750
:1037000047EAD8374FEA4846B1F9008036196F4189
:103710004FEACE744FEAC80116EB0A064F41A61BCA
:1037200040F635444FEAEE79A6FB04014FEAC9752D
:1037300045EA5E0565EB070704FB0711FDF774FC1E
:10374000494B4C13B3F90020450B02FB04F645EA44
:10375000C145D31705FB0366A2FB0523544333443D
:1037600005FB0344A2FB05232344540E44EAC3147F
:1037700022183E4C4FEA6365B4F9004045EB010363
:103780006143E51700FB0515A4FB00012944C40CA7
:1037900044EA413412194FEAE1456B41100A40EA0C
:1037A0000360334BB3F90040009B220112184FF421
:1037B000807092FBF0F2FD201A60FFF77FFDB0F5FC
:1037C000004F3FF438AF2B4A2B49B2F90020DBF809
:1037D00000301205C2EB8032B1F90000A3F5963338
:1037E00003FB1020254900F58040C2130878584398
:1037F000C01200F50041224890F9000058438012A1
:1038000048432049801200F50013B1F900005843E5
:1038100000F5005080135043C3135B431A4ADB1179
:1038200012785343A0EB231020EAE070B0F1C85F98
:10383000A8BF4FF0C8500013FDF7DCF94FF06A51F4
:10384000FDF72CFA019B18605046F5E60000C6C251
:1038500010020020360200201E0200202402002058
:103860001A0200203C0200203A020020220200201E
:1038700014020020320200201C0200203802002026
:10388000300200202002002012020020400200200E
:103890000022034B1B685A625A6A8242FCD9704765
:1038A0002403002010B5074C204600F00DFB2046F5
:1038B000CC2100F060FB2046BDE81040442100F020
:1038C0005ABB00BF5802002073B52A4B0D461B7827
:1038D000834202D8002002B070BD274B0001C418FB
:1038E000C35C282BF6D1254800F02AFB0028F1D034
:1038F000224800F0E9FA2146204800F0D1FBBE2121
:103900001E4800F038FB00241C4E304600F043FBFC
:103910000DF804000134052CF7D19DF801309DF815
:103920000040164844EA032400F0CEFA9DF8043023
:103930002046C3F3411309330B2B11D00C2B14D0A9
:103940000A2B08D0FDF756F94FF07C51FDF7A6F988
:1039500028600120BFE7FDF74DF94FF07A51F5E7F8
:10396000FDF748F94FF07851F0E7FDF743F94FF0D4
:103970007651EBE7F80100204802002058020020B1
:103980002DE9F041334B0D461B78834205D9324B6C
:103990000001C618C35C282B16D00020BDE8F081BA
:1039A0000A2D04D104F0BF0444F020042DE00B2DB7
:1039B00004D104F0DF0444F0400426E00C2D04BFE1
:1039C00044F06004E4B220E0244800F07DFA31467F
:1039D000224800F065FBBE21204800F0CCFA1F48C9
:1039E00000F0D9FA1D4800F0D6FA1C4800F0D3FACE
:1039F00007461A4800F0CFFA8046184800F0CBFA84
:103A0000092D0446CCD104F09F04144800F05CFA60
:103A10003146124800F044FB4E21104800F0ABFA4A
:103A200039460E4800F0A7FA41460C4800F0A3FAC8
:103A300021460A4800F09FFA084800F045FA31464E
:103A4000064800F02DFB4821044800F094FA0120BC
:103A5000BDE8F081F8010020480200205802002053
:103A6000014800F06DBA00BF580200202DE9F04176
:103A7000FFF7F6FFC0B10024A0460C4F0C4D3B7879
:103A8000E0B2834201D8BDE8F08101016E1886F8EA
:103A90000C806B5C282B01D00134F0E708312944FD
:103AA000FFF712FF3073F7E7BDE8F081F80100205F
:103AB00048020020044B03EB0013187B10B10120D7
:103AC0009B680B60704700BF480200202DE9F04161
:103AD0001A494FF480720746194800F0FDFA184859
:103AE00000F0D4FA0021174D174EDFF8548040B98A
:103AF0000C46002605EB0415F0B2844213D8BDE84D
:103B0000F08133784C1C013305EB011140463370D2
:103B100000F0D6FA404600F0C0FA3378E4B2002B49
:103B2000E7D12146E3E72B78282B03D0FFF7BAFE35
:103B30000136E1E73946FFF723FFF7E700100140C0
:103B40005802002048020020F801002010222DE930
:103B5000F04188B00DEB0200002100F087FC2F4BF4
:103B6000DFF8C4809A692E4D42F010029A619A697A
:103B7000404602F010020092009A9A69202142F019
:103B800020029A619A69002402F020020192019AAF
:103B90009A69012742F004029A619A69022602F0AA
:103BA00004020292029A9A6942F008029A619B69A1
:103BB000002203F008030393039BFDF7E5FD0022B9
:103BC00028464FF48071FDF7DFFD4FF40053049356
:103BD000144B04A9284605930694FDF7EFFC202317
:103BE00004A940460493059706940796FDF7E6FC62
:103BF0004FF4807304A9284604930597069407960A
:103C0000FDF7DCFC224621462820FDF739FC282060
:103C1000FDF76AFC08B0BDE8F08100BF001002406B
:103C200000100140000011100008014008B50C48C8
:103C30000C4BDFF834E04FF4804280E8084000236A
:103C400002618360C36043618361C3610362FDF706
:103C50007BFF18B1BDE8084000F004B908BD00BF03
:103C60006C02002000540040A086010008B50C48FA
:103C70000C4BDFF834E04FF4804280E8084000232A
:103C800002618360C36043618361C3610362FDF7C6
:103C90005BFF18B1BDE8084000F0E4B808BD00BF04
:103CA000C002002000580040A0860100102210B57C
:103CB000044688B00DEB0200002100F0D7FB23681A
:103CC000294A93422ED1294C04A9A369284843F0DC
:103CD0000803A361A36903F008030093009BC023BA
:103CE00004931223059303230793FDF767FC002237
:103CF000E369114643F40013E361E3691F2003F411
:103D000000130193019BFDF7BBFB1F20FDF7ECFBAC
:103D1000002220201146FDF7B3FB2020FDF7E4FB35
:103D200008B010BD134A9342FAD1104C04A9A369FC
:103D30000F4843F00803A361A36903F0080302934B
:103D4000029B4FF4406304931223059303230793CC
:103D5000FDF734FCE36943F48003E361E36903F4B2
:103D600080030393039BDBE70054004000100240F4
:103D7000000C01400058004010B590B028220021EE
:103D800006A800F073FB1422002101A800F06EFBCE
:103D900001230A93102302240B934FF4601306A807
:103DA0000F9306940D94FEF7D1FD0F234FF480621C
:103DB00001930023214601A80294039304920593E2
:103DC000FEF78CFF10B010BD07B5FDF711FBFFF734
:103DD000D3FFFFF7BBFEFFF729FF00F0ABFA00F0BF
:103DE0004FFAFFF743FF00F015FA1748FFF748F8BE
:103DF00003230122009311461448FFF7C3FA002160
:103E00000620FFF7B4FA0920FFF760FE4FF47A703E
:103E1000FDF712FB0E4E0F4D0F4C324629460F4850
:103E2000FFF7FCFBFFF722FEFFF73CFD0C490020EB
:103E3000FFF740FE20462021FDF7ABFC4FF4FA705F
:103E4000FDF7FAFAE9E700BF24030020C0020020D2
:103E50001C0300202003002000080140180300205C
:103E600014030020704700000022034B1B685A62B5
:103E70005A6A8242FCD97047640300201FB50023B0
:103E80000193029301230393838804A941F8103D11
:103E90000068FDF793FB05B05DF804FB1FB5112327
:103EA00001930023029301230393838804A941F81B
:103EB000103D0068FDF782FB05B05DF804FB8388C8
:103EC00002681B041361704710B50446FFF7F7FF43
:103ED000FFF7E4FF4FF4F070FFF7C6FF2046FFF74F
:103EE000CDFF4620FFF7C0FFA1882068FDF746FC04
:103EF00001464FF4CD70FFF7B7FF084610BD10B56F
:103F0000044689B1FFF7DBFFFFF7C8FF0620FFF784
:103F1000ABFF2046FFF7B2FF4020FFF7A5FF20468A
:103F2000BDE81040FFF7AABFFFF7C9FFFFF7B6FFD4
:103F30003C20FFF799FF2046FFF7A0FF0A20ECE79F
:103F400010B50446FFF7BBFFFFF7A8FF0220FFF7FD
:103F50008BFF2046FFF792FF0A20FFF785FFA1881D
:103F60002068FDF70BFC01463220FFF77DFF081C9F
:103F700018BF012010BD70B506460D46082405F097
:103F800001013046013CFFF7BAFF14F0FF044FEA8D
:103F90005505F4D170BD70B506460825002430469D
:103FA000FFF7CEFF6408013D44EAC01415F0FF0599
:103FB000E4B2F4D1204670BD2DE9F843037A0446FB
:103FC0000D461BB9FFF780FF814628B10020A07184
:103FD0002072E071BDE8F883012629462046FFF7EC
:103FE000CAFF4F4635462046FFF7AAFF80462046C7
:103FF000FFF7A6FFB8F1010F10D101282ED1402DF7
:10400000E4D984F80690B9F1000F01D1012323729D
:10401000637A002BDAD00120BDE8F883804504EBF9
:10402000070310D1A279954212D25A7A164214BFD0
:104030004FF001084FF00008B8F1000F0ED1082D25
:1040400000D8E571A9465A7A22EA06025A720BE0B4
:104050000CBF4FF001084FF00008EDE74FF00108EA
:10406000E219537A33435372414620467600FFF7F4
:1040700046FF16F0FF0604BF0137FFB205F1010548
:1040800008BF0126072FEDB2ADD9B8E70022F02115
:1040900082710272C271FFF78FBFF021FFF78CBFF0
:1040A00070B50C4655210646FFF765FF651E0734BF
:1040B00015F8011F3046FFF75EFFA542F8D170BD2D
:1040C00000F109030139113013F8012B834201F883
:1040D000012FF9D17047000070B504460E46154611
:1040E0000D48FEF7CDFE20462660A580FFF7D6FEE0
:1040F0002368A28864201A61FDF79EF92046FFF725
:10410000DEFE6420FDF798F92368A288C820BDE888
:1041100070401A61FDF790B9640300200E4B82B025
:104120009A6942F001029A619A6902F001020092D2
:10413000009ADA6942F08052DA61DB69074A03F0DB
:1041400080530193019B536823F0E06343F00073B5
:10415000536002B0704700BF0010024000000140F1
:104160007047FEE7FEE7FEE7FEE7704770477047DF
:10417000FDF750B90148FDF7BBBF00BF6C0200203E
:104180000148FEF71FBB00BF6C0200204FF4005037
:10419000FDF704BB08B50A4B0246196809B909497D
:1041A00019606946186802448A4206D900F034F959
:1041B0000C2303604FF0FF3008BD1A6008BD00BF3C
:1041C000FC010020E80300200F4B1A6842F00102B6
:1041D0001A6059680D4A0A405A601A6822F08472BF
:1041E00022F480321A601A6822F480221A605A6817
:1041F00022F4FE025A604FF41F029A604FF00062F0
:10420000034B9A60704700BF001002400000FFF8A7
:1042100000ED00E07FB51022002102A800F026F991
:104220003F2215481549002380E806004FF6FF722B
:10423000009301938360C260036143618361FEF771
:104240001DFF08B1FFF70EFE4FF4805302A90A4884
:104250000293FEF722FE08B1FFF704FE0023694631
:10426000054800930193FEF723FF08B1FFF7FAFD1D
:1042700007B05DF804FB00BF64030020002C014080
:104280007FB51022002102A800F0F0F83F22144868
:104290001449002380E806004FF6FF720093019353
:1042A0008360C26003618361FEF7E8FE08B1FFF737
:1042B000D9FD4FF4805302A909480293FEF7EDFDA2
:1042C00008B1FFF7CFFD002369460548009301932D
:1042D000FEF7EEFE08B1FFF7C5FD07B05DF804FB81
:1042E000240300200004004003680F4A82B0934278
:1042F0000BD10E4B9A6942F400629A619B6903F4F8
:1043000000630093009B02B07047094A9342FAD1C0
:10431000064BDA6942F00202DA61DB6903F002035C
:104320000193019BEFE700BF002C01400010024009
:104330000004004008B54FF4E13E0A480A4B0C2245
:1043400080E80840002342618360C36003618361A9
:10435000C361FEF76DFF18B1BDE80840FFF782BDED
:1043600008BD00BFA40300200044004010B504466F
:1043700086B01022002102A800F078F82268114BC4
:104380009A421CD103F5E633DA6902A942F40032FD
:10439000DA61DA690C4802F400320092009A9A69F4
:1043A00042F004029A619B6903F004030193019BAC
:1043B0000C230293022303930593FDF7FFF806B045
:1043C00010BD00BF0044004000080140002103E090
:1043D0000B4B5B58435004310A480B4B42189A422E
:1043E000F6D30A4A02E0002342F8043B084B9A4203
:1043F000F9D3FFF7E9FE00F015F8FFF7E5FC704789
:104400005861000800000020DC010020DC010020D1
:10441000E8030020FEE70000014B1868704700BF6A
:104420000C00002070B500250C4E0D4CA41BA410F0
:10443000A54209D101F054FD00250A4E0A4CA41BE7
:10444000A410A54205D170BD56F825309847013516
:10445000EEE756F8253098470135F2E7506100083D
:10446000506100085061000854610008034602448E
:10447000934200D1704703F8011BF9E7002B2DE9A7
:10448000F0471E46BBBF03F100431E4600232D2309
:1044900088B0149F129927F02007462F1446109DCC
:1044A000DDF84CA00B7004D0452F00D1013502235C
:1044B00000E0032307AA049206AA03928DE82804C9
:1044C0002246334600F0A8FB472F804602D1119BBD
:1044D000DB0726D5462F08EB050911D198F80030E7
:1044E000302B0AD10022002320463146FCF758FA2F
:1044F00018B9C5F10105CAF80050DAF8003099443E
:104500000022002320463146FCF74AFA38B930220F
:10451000079B994505D9591C07911A70F8E7CDF802
:104520001C904046079B159AA3EB0803136008B044
:10453000BDE8F0870346F7B5002903F8022BB6BFA4
:104540002D222B2249420929427021DD0DF107025B
:1045500017460A2691FBF6F506FB1511092D01F108
:10456000300102F8011C02F1FF34294609DC303128
:10457000023A04F8011CBA421C4604D3201A03B0C4
:10458000F0BD2246E6E712F8011B03F8011BF2E733
:1045900030221C46114404F8022B5970EEE700004B
:1045A0002DE9F04F91B00C461A9F93461E460546E2
:1045B00001F006F9036818460993FBF7C9FD0023CB
:1045C0000E933B680A90073323F0070303F10802B8
:1045D00094F81880D4F800A03A60D3E90023C4E925
:1045E0001223D4F84C90A76C29F000430B934FF0A2
:1045F000FF32A64B38460B99FCF704FA002840F02E
:10460000F7814FF0FF32A14B38460B99FCF7DCF9EC
:10461000002840F0ED810022002338464946FCF78F
:10462000C9F910B12D2384F84330994B994FB8F153
:10463000470F98BF1F4603234FF0000923612AF05C
:104640000403236000965B460FAA2146284600F02B
:10465000DFF9013040F09A804FF0FF3011B0BDE833
:10466000F08F62680EA8531C0DF1340E4AF480637B
:1046700041D10622626000212360019363680DF13D
:1046800033020590029200933A464B460691CDF8CC
:104690001080CDF80CE02846FFF7F0FE08F0DF03AD
:1046A000472B074609D10D9BD81C02DB6268934259
:1046B00059DDA8F102085FFA88F8B8F1650F0D9985
:1046C00036D80139424604F150000D91FFF732FF10
:1046D0000E9A81468318012A236102DC2268D107E1
:1046E00001D5013323619DF83330002BAAD02D234F
:1046F00084F84330A6E7B8F1670F02D0B8F1470F4E
:10470000B9D19AB1002106910DF133018DE80C0069
:10471000236005903A46CDF81080CDF80CE0029168
:104720004B462846FFF7AAFE0746BCE70122A1E751
:10473000B8F1660F19D1002963680CDD216113B946
:104740002268D20702D501330B4423610D9B4FF041
:104750000009A365C7E713B92268D00701D5023362
:10476000F3E70123F1E74FF067080D9B0E9A9342A0
:1047700005DB22682361D107E8D50133E5E7002B8B
:10478000CCBF0123C3F102031344DEE723685A05BB
:1047900007D423693A4659462846B04701302AD102
:1047A0005AE7B8F1650F40F2DC80D4E9120100222B
:1047B0000023FCF7F5F8002839D00123364A594682
:1047C0002846B04701303FF447AF0E9B0D9A9A42FE
:1047D00002DB2368D8070ED50A9B099A594628465A
:1047E000B04701303FF438AF002704F11A080E9BA0
:1047F000013B9F4211DB23689F0708D5002704F186
:104800001908E3680F9A9B1A9F42C0F2E780E0689C
:104810000F9B9842B8BF184620E7012342465946ED
:104820002846B04701303FF417AF0137DFE70D9B53
:10483000002B33DC0123184A59462846B047013083
:104840003FF40AAF0D9B23B90E9B13B92368D90718
:10485000D1D50A9B099A59462846B04701303FF402
:10486000FBAE4FF0000804F11A090D9B5B4298451E
:1048700001DB0E9B8EE701234A4659462846B04786
:1048800001303FF4E9AE08F10108EEE7FFFFEF7FEA
:10489000205F0008245F0008305F00080E9AA36DB7
:1048A0009A42A8BF1A46002A904636DC4FF0000A0A
:1048B00004F11A0328EAE8780B93D4F85890A9EB8E
:1048C00008039A4531DB0E9B0D9A9A4238DB236828
:1048D000DA0735D40E9B0D99A3EB0902A3EB01086F
:1048E0009045A8BF9046B8F1000F31DC002728EAB8
:1048F000E87804F11A090D9A0E9B9B1AA3EB0803A2
:104900009F42BFF678AF01234A4659462846B04732
:1049100001303FF4A1AE0137EDE7134659463A4660
:104920002846B0470130C1D196E601230B9A59467B
:104930002846B04701303FF48FAE0AF1010ABCE7C8
:104940000A9B099A59462846B0470130C2D183E6EE
:10495000434607EB090259462846B0470130C5D106
:104960007AE60E9A012A01DCDB0734D501233A46A8
:1049700059462846B04701303FF46EAE0A9B099A6B
:1049800059462846B04701303FF466AED4E91201DB
:1049900000220023FCF704F850B1002704F11A08A4
:1049A0000E9B013B9F420CDB4B4604F15002F2E6AA
:1049B0000E9B7A1C013B59462846B0470130F3D183
:1049C0004AE60123424659462846B04701303FF4A3
:1049D00043AE0137E4E701233A46ECE701234246C0
:1049E00059462846B04701303FF436AE013708E754
:1049F0003A464B4638464946FCF704F800283FF44F
:104A000030AE014B014F12E6285F00082C5F000812
:104A10002DE9F04791461F468A680B690646934286
:104A2000B8BF1346C9F8003091F843200C46DDF8B2
:104A3000208012B10133C9F800302368990642BFC3
:104A4000D9F800300233C9F80030256815F00605A2
:104A500007D104F1190AE368D9F800209B1A9D4296
:104A60002ADB94F843302268003318BF01239206F2
:104A70002FD404F1430239463046C047013022D0DA
:104A80002368E56803F00603042B18BF0025D9F856
:104A900000204FF0000908BFAD1AA368226908BFC3
:104AA00025EAE5759342C4BF9B1AED181A344D45AB
:104AB0001BD10020BDE8F08701235246394630461D
:104AC000C047013003D14FF0FF30BDE8F08701351A
:104AD000C1E73020E11881F843005A1C94F84510D2
:104AE0002244023382F84310C3E7012322463946A9
:104AF0003046C0470130E6D009F10109D7E72DE97A
:104B0000F74F03690C6980469C4200F38280013CA8
:104B100001F1140700F1140657F8245056F8240048
:104B20000135B0FBF5F54FEA840E06EB0E0307EBFB
:104B30000E0901938DB34FF0000A3846B446D346B0
:104B400050F8042B93B205FB03A3120C4FEA134A4F
:104B500005FB02A29BB2ABEB0303BCF800B04FEA2B
:104B6000124A5B441FFA82FBDCF800208145CBEB44
:104B7000124202EB23429BB243EA02434FEA224B2A
:104B80004CF8043BDCD256F80E3033B9019B043BA1
:104B90009E421A4631D3C8F81040404601F039F819
:104BA000002826DB30464FF0000E013557F8041B75
:104BB000D0F800C08BB2AEEB03031FFA8CF21344A3
:104BC0000A0CC2EB1C4202EB23429BB243EA0243B3
:104BD000B9454FEA224E40F8043BE7D256F824206C
:104BE00006EB84032AB9043B9E421A460BD3C8F84D
:104BF0001040284603B0BDE8F08F1268043B002A3D
:104C0000C9D1013CC4E71268043B002AEFD1013C42
:104C1000EAE70020EEE700002DE9F04F466A95B084
:104C20000446219DCDE902233EB9102000F0D6FDB7
:104C30006062466086600660C660636A196851B14A
:104C40005A68012393404A608B60204600F00DFEB5
:104C50000022636A1A60039B002BB7BF0123002365
:104C60002B60039BAEBF2B6023F000430393DDF862
:104C70000C90AB4B33EA09031BD142F20F73209A1D
:104C80001360029B23B9C9F31300002800F0838549
:104C9000229B53B9A34B21E0A34B06930833229ADE
:104CA0001360069815B0BDE8F08F9E4B0693033352
:104CB000F5E7DDE902670022002330463946FBF7BD
:104CC0006FFE804660B10123209A1360229B002B67
:104CD00000F05E85954B229A1360013B0693E0E756
:104CE00012AB019313AB009332463B46204601F0D2
:104CF00009F8C9F30A558246002D7DD03046C7F326
:104D0000130343F07F5141F44011A5F2FF35CDF874
:104D100040800022864BFBF727FA7BA3D3E90023D0
:104D2000FBF7D6FB7AA3D3E90023FBF71FFA06466D
:104D300028460F46FBF766FB77A3D3E90023FBF772
:104D4000C7FB02460B4630463946FBF70FFA0646CC
:104D50000F46FBF76DFE002283460023304639469E
:104D6000FBF728FE58B15846FBF74CFB02460B46B2
:104D700030463946FBF714FE08B90BF1FF3BBBF197
:104D8000160F58D8DDE902236A4901EBCB01D1E9BE
:104D90000001FBF72DFE00284FD000230BF1FF3B55
:104DA0000D93129B5D1B6B1E079343BF0023C5F140
:104DB000010807934FF00008BBF1000F3FDB079B92
:104DC000CDF830B05B440793002308931E9B092B5A
:104DD00000F2B480052BC4BF043B1E931E9BC8BFCA
:104DE0000026A3F10203D8BF0126032B00F2B280F4
:104DF000DFE803F084862D78139B129D1D4405F295
:104E00003243202B11DD029A05F21240C3F1400318
:104E100022FA00F009FA03F31843FBF7E3FA01233F
:104E2000A1F1F871013D109373E7C3F12000029BDB
:104E300003FA00F0F1E70123B2E70D90B1E7CBF1FF
:104E4000000308930023A8EB0B080C93BEE7012393
:104E500009931F9B002B40F3808099460493002206
:104E60000421656A6A6001F114029A427AD969687C
:104E7000204600F0C6FC636A28601B68B9F10E0F7B
:104E8000069300F2F080002E00F0ED80DDE90223B1
:104E9000BBF1000FCDE90E2379DD264A0BF00F039D
:104EA0004FEA2B1602EBC303F006D3E90023CDE94A
:104EB0000A235CD5DDE90E011F4B0325D3E9082346
:104EC000FBF730FCCDE9020106F00F061A4F002E69
:104ED0004FD1DDE90A23DDE90201FBF723FCCDE92F
:104EE00002016EE0012309931F9B5B4403F101095A
:104EF00004934B46012BB8BF0123B0E70023A7E77B
:104F00000023F0E7AFF3008061436F63A787D23FD0
:104F1000B3C8608B288AC63FFB799F501344D33FA8
:104F20000000F07F3B5F0008325F0008315F00083F
:104F30000000F83F685F0008405F0008012600237A
:104F400009961E934FF0FF330022049399461223D3
:104F50001F9284E701230993F4E701230493994600
:104F60001A46F5E76A68490001326A607BE7022564
:104F7000ACE7F10708D5DDE90A01D7E90023FBF723
:104F8000A7FACDE90A010135761008379FE700F04E
:104F9000A580DDE90E01CBF10006A24B06F00F0261
:104FA00003EBC203D3E90023FBF792FA02250023A7
:104FB000CDE902019C4F3611002E40F08480002B79
:104FC0008DD10D9B002B00F08B80DDE90223CDE914
:104FD0000A23DDE90A010022944BFBF7EBFC0028D1
:104FE0007ED0B9F1000F7BD0049B002B37DDDDE9CB
:104FF0000A0100228E4BFBF76BFACDE90201049EF9
:105000000BF1FF3701352846FBF7FCF9DDE90223F8
:10501000FBF75EFA874B0022FBF7A8F8CDE90A01FF
:105020000B9BA3F150750B95002E5CD1DDE90201BD
:105030000022814BFBF798F80A9A2B46CDE9020132
:10504000FBF7D6FC002840F0F782DDE902010A9A5E
:1050500005F10043FBF7AEFC002840F0EB82DDE9F0
:105060000E23CDE90223139B002BC0F25081BBF12C
:105070000E0F00F34C816B4B03EBCB03D3E9002302
:10508000CDE904231F9B002B80F2DA80B9F1000FD9
:1050900000F3D68040F0CD82DDE904010022664BAA
:1050A000FBF716FADDE90223FBF798FC4E464F4664
:1050B000002840F0A482069B069A5D1C31230BF168
:1050C000010B13709FE2F20705D5D7E90023FBF728
:1050D000FFF901230135761008376DE7022570E7E7
:1050E0005F464E468FE7069A4E4B32441192099A1C
:1050F000711E002A48D003EBC103D3E9002300202E
:105100004E49FBF70FFBDDE90A23FBF72DF8CDE94C
:105110000A01069DDDE90201FBF78AFC0646FBF762
:1051200071F902460B46DDE90201FBF71DF8DDE9E6
:105130000A23303605F8016BCDE90201FBF73AFC92
:10514000002864D1DDE9022300203849FBF70CF880
:10515000DDE90A23FBF72EFC002840F0B980119B03
:105160009D423FF47CAFDDE90A010022304BFBF7A2
:10517000AFF90022CDE90A01DDE902012C4BFBF772
:10518000A7F9CDE90201C5E703EBC101D1E90001AF
:10519000DDE90A23FBF79CF9CDE90A01069DDDE96B
:1051A0000201FBF745FC0646FBF72CF902460B46CD
:1051B000DDE90201FAF7D8FF3036119B05F8016BE3
:1051C000AB42CDE902014FF0000224D11B4BDDE9D7
:1051D0000A01FAF7CBFF02460B46DDE90201FBF7B5
:1051E00007FC002874D1DDE90A2300201349FAF7EF
:1051F000BBFF02460B46DDE90201FBF7DBFB0028A3
:105200003FF42DAF15F8013C6A1E302B01D0BB4690
:105210004DE01546F6E7064BFBF75AF9CDE90201DA
:10522000BDE700BF685F0008405F00080000F03F76
:105230000000244000001C40000014400000E03F3B
:10524000069DDDE90267DDE9042330463946FBF7B8
:1052500069FAFBF7EDFB8046FBF7D4F8DDE90423A0
:10526000FBF736F902460B4630463946FAF77CFF23
:1052700008F1300605F8016B069E0246AE1BB145EB
:105280000B4637D1FAF772FF06460F4602460B4629
:10529000DDE90401FBF78EFBC8B9DDE90401324604
:1052A0003B46FBF77DFB10B118F0010F0FD15146C3
:1052B000204600F0DAFA0023209A2B700BF101034C
:1052C0001360229B002B3FF4ECAC1D60E9E45F46C9
:1052D00015F8012C6B1E392A06D1069A9A4207D17D
:1052E00030231370134601371A7801321A708EE793
:1052F0001D46EDE70022B54BFBF7EAF8002200233C
:1053000006460F46FBF74CFB00289CD0CFE7099AD6
:10531000002A00F029811E9A012A00F30E81109ABA
:10532000002A00F0068103F233434546089E079A9F
:1053300001211A4420469844079200F036FB0746A4
:10534000002D0BDD079B002B08DDAB42A8BF2B46D1
:10535000079AA8EB0308ED1AD31A0793089BFBB131
:10536000099B002B00F00481002E11DD39463246E6
:10537000204600F0AFFB524601460746204600F0AB
:105380001DFB51460A90204600F06FFA0A9B9A4690
:10539000089B9A1B04D05146204600F09BFB824696
:1053A0000121204600F001FB0C9B0646002B40F338
:1053B000E1801A460146204600F08CFB1E9B064603
:1053C000012B40F3DA8000230893336906EB830353
:1053D000186900F09CFAC0F12000079B184410F0F7
:1053E0001F0000F0F080C0F12003042B40F3E280A6
:1053F000079BC0F11C008044054403440793B8F1A7
:10540000000F05DD51464246204600F0B1FB8246C2
:10541000079B002B05DD31461A46204600F0A8FB0D
:1054200006460D9B002B00F0D3803146504600F01D
:10543000F0FB002880F2CC80002351460A2220464F
:1054400000F02AFA099B0BF1FF3B8246002B00F08B
:10545000A981002339460A22204600F01DFA049B48
:105460000746002B03DC1E9B022B00F3B980002DA6
:1054700005DD39462A46204600F07AFB0746089BA0
:10548000002B00F010817968204600F0BAF905463B
:105490003A6907F10C01023292000C3000F0A6F9D3
:1054A00001222946204600F063FB07970746029B2E
:1054B000DDF8188003F00103089331465046FFF7EA
:1054C0001EFB0799054600F13009504600F0A1FB8C
:1054D0003A4602903146204600F0B5FBC3680246CA
:1054E000002B40F0E28001460990504600F091FB0D
:1054F0000346099A11462046099300F0B6F9099B24
:10550000002B40F0D4801E9A002A40F0D080089AE8
:10551000002A40F0CC80B9F1390F00F0E880029BFE
:10552000002B01DD05F1310908F1010588F8009033
:105530006BE0129BC3F13603F7E6089B09F1FF36D7
:10554000B342B7BF089B9E1BF21A0C9BBFBF0896C5
:105550009B180C930026B9F1000FB9BFA8EB090501
:10556000002345464B46E2E6089E4546099FE7E68E
:10557000089A10E71E9B012B18DC029BB3B9039B12
:10558000C3F31303A3B9039B23F000431B0D1B05B7
:105590002BB1079B08F101080133079301230893FE
:1055A0000C9B002B7FF411AF012016E70023F6E7D8
:1055B000029BF4E73FF423AF079A1C331A44984444
:1055C0001D4413461AE70346F6E700BF00002440D7
:1055D000B9F1000F33DC1E9B022B30DDCDF81090AB
:1055E000049B63B931460522204600F055F9014677
:1055F0000646504600F00DFB00283FF75CAD1F9BB0
:10560000069D6FEA030B002307933146204600F006
:105610002CF9002F3FF44BAE079B2BB1BB4203D0BC
:105620001946204600F021F93946204600F01DF9C0
:105630003DE600263746E2E7BB4637463BE5099B99
:10564000CDF81090002B7FF412AF069D31465046E6
:10565000FFF755FA069B00F1300905F8019B049A03
:10566000EB1A9A4200F38180069B012AACBF9B187B
:10567000013398460023079351460122204600F04B
:1056800077FA3146824600F0C4FA002834DC02D1B1
:1056900019F0010F30D1454615F8013C6A1E302B38
:1056A000B3D11546F8E73846FFE6012322E7029A10
:1056B000002A04DB28D11E9A32BB089A22BB002B99
:1056C0007FF732AF51460122204600F051FA3146B1
:1056D000824600F09EFA002805DC7FF425AF19F021
:1056E000010F3FF421AFB9F1390F7FF41BAF39231C
:1056F00008F1010808F8013C454615F8013C6A1E0E
:10570000392B3AD001333FE0002B08F1010505DDCC
:10571000B9F1390FEBD009F1010907E7069B049AAB
:10572000EB1A9342A84605F8019CA5D051460023E8
:105730000A22204600F0B0F8079B8246BB424FF099
:105740000A024FF000030799204604D100F0A4F8A4
:1057500007900746B1E600F09FF8002307900A2261
:105760003946204600F098F8F3E7514600230A2214
:10577000204600F091F8824668E7069B934205D1E7
:105780003123069A0BF1010B13703EE71546B4E77F
:10579000094BFFF7A3BA229B002B7FF47DAA074B8E
:1057A000FFF79CBA049B002B3FF74FAF1E9B022BC9
:1057B0007FF74BAF14E700BF305F0008325F00088F
:1057C000044B1B68186A044B002808BF1846F030C9
:1057D000704700BF0C00002070000020024B014603
:1057E000186800F0EDBA00BF0C00002010B5431E91
:1057F0000A44914200D110BD11F8014B03F8014F4A
:10580000F7E770B5456A04460E463DB91020FFF72C
:10581000E5FF6062456085600560C560656AEB68AC
:1058200083B1636ADB6853F82600B8B9012101FA35
:1058300006F56A1D9200204600F0B3FA60B146609A
:1058400085600EE021220421204600F0AAFA636A56
:10585000E860DB68002BE4D1002070BD026843F8EB
:10586000262000230361C36070BD70B5446A0646FC
:105870000D463CB91020FFF7B1FF706244608460B0
:105880000460C4603DB1736A6A68DB6853F8221033
:10589000296043F8225070BD2DE9F0411F460646AD
:1058A0000C4600230D6901F1140EDEF800000133EF
:1058B00081B202FB0171000C0F0C02FB007089B277
:1058C00001EB00419D424FEA10474EF8041BECDC0F
:1058D000D7B1A3689D4212DB616830460131FFF702
:1058E00090FF8046226904F10C01023292000C30D4
:1058F000FFF77CFF21463046FFF7B7FF444604EB35
:10590000850301355F6125612046BDE8F081020C09
:1059100012040346B2B90304102013F07F4F04BFF2
:105920001B02083013F0704F04BF1B01043013F04A
:10593000404F04BF9B000230002B06DB5B0003D509
:10594000013070470020E8E72020704703680146D7
:1059500013F007020BD0DA0723D4980749BF5B087E
:105960009B0801200B605CBF0B600220704798B25F
:10597000A8B910201B0C13F0FF0F04BF1B0A08303E
:105980001A0704BF1B0904309A0704BF9B080230A2
:10599000DA0702D45B0806D001300B60704710466E
:1059A000E9E7002070472020704710B50C46012120
:1059B000FFF727FF01224461026110BD2DE9F74F77
:1059C00014460A69236989469A42BEBF0B46A1461E
:1059D0001C46D9F81070D4F810A0D9F80830D9F8BE
:1059E000041007EB0A069E42C8BF0131FFF709FF0A
:1059F00000F114052B46002205EB8608434516D31B
:105A000004F1140209F1140102EB8A0301EB870788
:105A10000193019C134694420CD8002E03DD58F8E4
:105A2000043D002B54D0066103B0BDE8F08F43F86D
:105A3000042BE3E7B3F800A00432BAF1000F20D042
:105A4000AE4689464FF0000C59F8044BBEF800B042
:105A5000A3B20AFB03B34FEA144BDEF800406344E1
:105A60004FEA144C0AFB0BC404EB13449BB243EA09
:105A700004434F454FEA144C4EF8043BE4D8CEF8AB
:105A800000C032F8029CB9F1000F1FD0AE468C4620
:105A90004FF0000A2B68BCF80040BEF802B09BB281
:105AA00009FB04B4A24443EA0A434EF8043B5CF801
:105AB000043BBEF800401B0C09FB0343674503EBA6
:105AC0001A434FEA134AE6D8CEF800300435A0E76F
:105AD000013EA2E72DE9F843154612F003020646FF
